{
  "contractName": "Ballot",
  "abi": [
    {
      "inputs": [
        {
          "internalType": "string[]",
          "name": "_proposals",
          "type": "string[]"
        }
      ],
      "stateMutability": "nonpayable",
      "type": "constructor"
    },
    {
      "inputs": [],
      "name": "chairperson",
      "outputs": [
        {
          "internalType": "address",
          "name": "",
          "type": "address"
        }
      ],
      "stateMutability": "view",
      "type": "function"
    },
    {
      "inputs": [
        {
          "internalType": "uint256",
          "name": "",
          "type": "uint256"
        }
      ],
      "name": "proposals",
      "outputs": [
        {
          "internalType": "string",
          "name": "name",
          "type": "string"
        },
        {
          "internalType": "uint256",
          "name": "voteCount",
          "type": "uint256"
        }
      ],
      "stateMutability": "view",
      "type": "function"
    },
    {
      "inputs": [
        {
          "internalType": "address",
          "name": "",
          "type": "address"
        }
      ],
      "name": "voters",
      "outputs": [
        {
          "internalType": "uint256",
          "name": "weight",
          "type": "uint256"
        },
        {
          "internalType": "bool",
          "name": "voted",
          "type": "bool"
        },
        {
          "internalType": "address",
          "name": "delegate",
          "type": "address"
        },
        {
          "internalType": "uint256",
          "name": "vote",
          "type": "uint256"
        }
      ],
      "stateMutability": "view",
      "type": "function"
    },
    {
      "inputs": [
        {
          "internalType": "address",
          "name": "voter",
          "type": "address"
        }
      ],
      "name": "giveRightToVote",
      "outputs": [],
      "stateMutability": "nonpayable",
      "type": "function"
    },
    {
      "inputs": [
        {
          "internalType": "address",
          "name": "to",
          "type": "address"
        }
      ],
      "name": "delegate",
      "outputs": [],
      "stateMutability": "nonpayable",
      "type": "function"
    },
    {
      "inputs": [
        {
          "internalType": "uint256",
          "name": "proposal",
          "type": "uint256"
        }
      ],
      "name": "vote",
      "outputs": [],
      "stateMutability": "nonpayable",
      "type": "function"
    },
    {
      "inputs": [],
      "name": "winningProposal",
      "outputs": [
        {
          "internalType": "uint256",
          "name": "winningProposal_",
          "type": "uint256"
        }
      ],
      "stateMutability": "view",
      "type": "function"
    },
    {
      "inputs": [],
      "name": "winnerName",
      "outputs": [
        {
          "internalType": "string",
          "name": "winnerName_",
          "type": "string"
        }
      ],
      "stateMutability": "view",
      "type": "function"
    }
  ],
  "bytecode": "0x608060405234801562000010575f80fd5b506040516200195a3803806200195a8339818101604052810190620000369190620003fc565b335f806101000a81548173ffffffffffffffffffffffffffffffffffffffff021916908373ffffffffffffffffffffffffffffffffffffffff1602179055506001805f805f9054906101000a900473ffffffffffffffffffffffffffffffffffffffff1673ffffffffffffffffffffffffffffffffffffffff1673ffffffffffffffffffffffffffffffffffffffff1681526020019081526020015f205f01819055505f5b81518110156200017757600260405180604001604052808484815181106200010857620001076200044b565b5b602002602001015181526020015f815250908060018154018082558091505060019003905f5260205f2090600202015f909190919091505f820151815f019081620001549190620006af565b5060208201518160010155505080806200016e90620007c0565b915050620000db565b50506200080c565b5f604051905090565b5f80fd5b5f80fd5b5f80fd5b5f601f19601f8301169050919050565b7f4e487b71000000000000000000000000000000000000000000000000000000005f52604160045260245ffd5b620001dc8262000194565b810181811067ffffffffffffffff82111715620001fe57620001fd620001a4565b5b80604052505050565b5f620002126200017f565b9050620002208282620001d1565b919050565b5f67ffffffffffffffff821115620002425762000241620001a4565b5b602082029050602081019050919050565b5f80fd5b5f80fd5b5f67ffffffffffffffff821115620002785762000277620001a4565b5b620002838262000194565b9050602081019050919050565b5f5b83811015620002af57808201518184015260208101905062000292565b5f8484015250505050565b5f620002d0620002ca846200025b565b62000207565b905082815260208101848484011115620002ef57620002ee62000257565b5b620002fc84828562000290565b509392505050565b5f82601f8301126200031b576200031a62000190565b5b81516200032d848260208601620002ba565b91505092915050565b5f6200034c620003468462000225565b62000207565b9050808382526020820190506020840283018581111562000372576200037162000253565b5b835b81811015620003c057805167ffffffffffffffff8111156200039b576200039a62000190565b5b808601620003aa898262000304565b8552602085019450505060208101905062000374565b5050509392505050565b5f82601f830112620003e157620003e062000190565b5b8151620003f384826020860162000336565b91505092915050565b5f6020828403121562000414576200041362000188565b5b5f82015167ffffffffffffffff8111156200043457620004336200018c565b5b6200044284828501620003ca565b91505092915050565b7f4e487b71000000000000000000000000000000000000000000000000000000005f52603260045260245ffd5b5f81519050919050565b7f4e487b71000000000000000000000000000000000000000000000000000000005f52602260045260245ffd5b5f6002820490506001821680620004c757607f821691505b602082108103620004dd57620004dc62000482565b5b50919050565b5f819050815f5260205f209050919050565b5f6020601f8301049050919050565b5f82821b905092915050565b5f60088302620005417fffffffffffffffffffffffffffffffffffffffffffffffffffffffffffffffff8262000504565b6200054d868362000504565b95508019841693508086168417925050509392505050565b5f819050919050565b5f819050919050565b5f62000597620005916200058b8462000565565b6200056e565b62000565565b9050919050565b5f819050919050565b620005b28362000577565b620005ca620005c1826200059e565b84845462000510565b825550505050565b5f90565b620005e0620005d2565b620005ed818484620005a7565b505050565b5b818110156200061457620006085f82620005d6565b600181019050620005f3565b5050565b601f82111562000663576200062d81620004e3565b6200063884620004f5565b8101602085101562000648578190505b620006606200065785620004f5565b830182620005f2565b50505b505050565b5f82821c905092915050565b5f620006855f198460080262000668565b1980831691505092915050565b5f6200069f838362000674565b9150826002028217905092915050565b620006ba8262000478565b67ffffffffffffffff811115620006d657620006d5620001a4565b5b620006e28254620004af565b620006ef82828562000618565b5f60209050601f83116001811462000725575f841562000710578287015190505b6200071c858262000692565b8655506200078b565b601f1984166200073586620004e3565b5f5b828110156200075e5784890151825560018201915060208501945060208101905062000737565b868310156200077e57848901516200077a601f89168262000674565b8355505b6001600288020188555050505b505050505050565b7f4e487b71000000000000000000000000000000000000000000000000000000005f52601160045260245ffd5b5f620007cc8262000565565b91507fffffffffffffffffffffffffffffffffffffffffffffffffffffffffffffffff820362000801576200080062000793565b5b600182019050919050565b611140806200081a5f395ff3fe608060405234801561000f575f80fd5b5060043610610086575f3560e01c8063609ff1bd11610059578063609ff1bd146101115780639e7b8d611461012f578063a3ec138d1461014b578063e2ba53f01461017e57610086565b80630121b93f1461008a578063013cf08b146100a65780632e4176cf146100d75780635c19a95c146100f5575b5f80fd5b6100a4600480360381019061009f9190610aa6565b61019c565b005b6100c060048036038101906100bb9190610aa6565b6102d7565b6040516100ce929190610b6a565b60405180910390f35b6100df61038c565b6040516100ec9190610bd7565b60405180910390f35b61010f600480360381019061010a9190610c1a565b6103af565b005b610119610734565b6040516101269190610c45565b60405180910390f35b61014960048036038101906101449190610c1a565b6107b5565b005b61016560048036038101906101609190610c1a565b610960565b6040516101759493929190610c78565b60405180910390f35b6101866109b8565b6040516101939190610cbb565b60405180910390f35b5f60015f3373ffffffffffffffffffffffffffffffffffffffff1673ffffffffffffffffffffffffffffffffffffffff1681526020019081526020015f2090505f815f015403610221576040517f08c379a000000000000000000000000000000000000000000000000000000000815260040161021890610d25565b60405180910390fd5b806001015f9054906101000a900460ff1615610272576040517f08c379a000000000000000000000000000000000000000000000000000000000815260040161026990610d8d565b60405180910390fd5b6001816001015f6101000a81548160ff021916908315150217905550818160020181905550805f0154600283815481106102af576102ae610dab565b5b905f5260205f2090600202016001015f8282546102cc9190610e05565b925050819055505050565b600281815481106102e6575f80fd5b905f5260205f2090600202015f91509050805f01805461030590610e65565b80601f016020809104026020016040519081016040528092919081815260200182805461033190610e65565b801561037c5780601f106103535761010080835404028352916020019161037c565b820191905f5260205f20905b81548152906001019060200180831161035f57829003601f168201915b5050505050908060010154905082565b5f8054906101000a900473ffffffffffffffffffffffffffffffffffffffff1681565b5f60015f3373ffffffffffffffffffffffffffffffffffffffff1673ffffffffffffffffffffffffffffffffffffffff1681526020019081526020015f209050806001015f9054906101000a900460ff1615610440576040517f08c379a000000000000000000000000000000000000000000000000000000000815260040161043790610edf565b60405180910390fd5b3373ffffffffffffffffffffffffffffffffffffffff168273ffffffffffffffffffffffffffffffffffffffff16036104ae576040517f08c379a00000000000000000000000000000000000000000000000000000000081526004016104a590610f47565b60405180910390fd5b5b5f73ffffffffffffffffffffffffffffffffffffffff1660015f8473ffffffffffffffffffffffffffffffffffffffff1673ffffffffffffffffffffffffffffffffffffffff1681526020019081526020015f2060010160019054906101000a900473ffffffffffffffffffffffffffffffffffffffff1673ffffffffffffffffffffffffffffffffffffffff16146106185760015f8373ffffffffffffffffffffffffffffffffffffffff1673ffffffffffffffffffffffffffffffffffffffff1681526020019081526020015f2060010160019054906101000a900473ffffffffffffffffffffffffffffffffffffffff1691503373ffffffffffffffffffffffffffffffffffffffff168273ffffffffffffffffffffffffffffffffffffffff1603610613576040517f08c379a000000000000000000000000000000000000000000000000000000000815260040161060a90610faf565b60405180910390fd5b6104af565b6001816001015f6101000a81548160ff021916908315150217905550818160010160016101000a81548173ffffffffffffffffffffffffffffffffffffffff021916908373ffffffffffffffffffffffffffffffffffffffff1602179055505f60015f8473ffffffffffffffffffffffffffffffffffffffff1673ffffffffffffffffffffffffffffffffffffffff1681526020019081526020015f209050806001015f9054906101000a900460ff161561071257815f015460028260020154815481106106e9576106e8610dab565b5b905f5260205f2090600202016001015f8282546107069190610e05565b9250508190555061072f565b815f0154815f015f8282546107279190610e05565b925050819055505b505050565b5f805f90505f5b6002805490508110156107b057816002828154811061075d5761075c610dab565b5b905f5260205f20906002020160010154111561079d576002818154811061078757610786610dab565b5b905f5260205f2090600202016001015491508092505b80806107a890610fcd565b91505061073b565b505090565b5f8054906101000a900473ffffffffffffffffffffffffffffffffffffffff1673ffffffffffffffffffffffffffffffffffffffff163373ffffffffffffffffffffffffffffffffffffffff1614610842576040517f08c379a000000000000000000000000000000000000000000000000000000000815260040161083990611084565b60405180910390fd5b60015f8273ffffffffffffffffffffffffffffffffffffffff1673ffffffffffffffffffffffffffffffffffffffff1681526020019081526020015f206001015f9054906101000a900460ff16156108cf576040517f08c379a00000000000000000000000000000000000000000000000000000000081526004016108c6906110ec565b60405180910390fd5b5f60015f8373ffffffffffffffffffffffffffffffffffffffff1673ffffffffffffffffffffffffffffffffffffffff1681526020019081526020015f205f015414610919575f80fd5b6001805f8373ffffffffffffffffffffffffffffffffffffffff1673ffffffffffffffffffffffffffffffffffffffff1681526020019081526020015f205f018190555050565b6001602052805f5260405f205f91509050805f015490806001015f9054906101000a900460ff16908060010160019054906101000a900473ffffffffffffffffffffffffffffffffffffffff16908060020154905084565b606060026109c4610734565b815481106109d5576109d4610dab565b5b905f5260205f2090600202015f0180546109ee90610e65565b80601f0160208091040260200160405190810160405280929190818152602001828054610a1a90610e65565b8015610a655780601f10610a3c57610100808354040283529160200191610a65565b820191905f5260205f20905b815481529060010190602001808311610a4857829003601f168201915b5050505050905090565b5f80fd5b5f819050919050565b610a8581610a73565b8114610a8f575f80fd5b50565b5f81359050610aa081610a7c565b92915050565b5f60208284031215610abb57610aba610a6f565b5b5f610ac884828501610a92565b91505092915050565b5f81519050919050565b5f82825260208201905092915050565b5f5b83811015610b08578082015181840152602081019050610aed565b5f8484015250505050565b5f601f19601f8301169050919050565b5f610b2d82610ad1565b610b378185610adb565b9350610b47818560208601610aeb565b610b5081610b13565b840191505092915050565b610b6481610a73565b82525050565b5f6040820190508181035f830152610b828185610b23565b9050610b916020830184610b5b565b9392505050565b5f73ffffffffffffffffffffffffffffffffffffffff82169050919050565b5f610bc182610b98565b9050919050565b610bd181610bb7565b82525050565b5f602082019050610bea5f830184610bc8565b92915050565b610bf981610bb7565b8114610c03575f80fd5b50565b5f81359050610c1481610bf0565b92915050565b5f60208284031215610c2f57610c2e610a6f565b5b5f610c3c84828501610c06565b91505092915050565b5f602082019050610c585f830184610b5b565b92915050565b5f8115159050919050565b610c7281610c5e565b82525050565b5f608082019050610c8b5f830187610b5b565b610c986020830186610c69565b610ca56040830185610bc8565b610cb26060830184610b5b565b95945050505050565b5f6020820190508181035f830152610cd38184610b23565b905092915050565b7f486173206e6f20726967687420746f20766f74652e00000000000000000000005f82015250565b5f610d0f601583610adb565b9150610d1a82610cdb565b602082019050919050565b5f6020820190508181035f830152610d3c81610d03565b9050919050565b7f416c726561647920766f7465642e0000000000000000000000000000000000005f82015250565b5f610d77600e83610adb565b9150610d8282610d43565b602082019050919050565b5f6020820190508181035f830152610da481610d6b565b9050919050565b7f4e487b71000000000000000000000000000000000000000000000000000000005f52603260045260245ffd5b7f4e487b71000000000000000000000000000000000000000000000000000000005f52601160045260245ffd5b5f610e0f82610a73565b9150610e1a83610a73565b9250828201905080821115610e3257610e31610dd8565b5b92915050565b7f4e487b71000000000000000000000000000000000000000000000000000000005f52602260045260245ffd5b5f6002820490506001821680610e7c57607f821691505b602082108103610e8f57610e8e610e38565b5b50919050565b7f596f7520616c726561647920766f7465642e00000000000000000000000000005f82015250565b5f610ec9601283610adb565b9150610ed482610e95565b602082019050919050565b5f6020820190508181035f830152610ef681610ebd565b9050919050565b7f53656c662d64656c65676174696f6e20697320646973616c6c6f7765642e00005f82015250565b5f610f31601e83610adb565b9150610f3c82610efd565b602082019050919050565b5f6020820190508181035f830152610f5e81610f25565b9050919050565b7f466f756e64206c6f6f7020696e2064656c65676174696f6e2e000000000000005f82015250565b5f610f99601983610adb565b9150610fa482610f65565b602082019050919050565b5f6020820190508181035f830152610fc681610f8d565b9050919050565b5f610fd782610a73565b91507fffffffffffffffffffffffffffffffffffffffffffffffffffffffffffffffff820361100957611008610dd8565b5b600182019050919050565b7f4f6e6c79206368616972706572736f6e2063616e2067697665207269676874205f8201527f746f20766f74652e000000000000000000000000000000000000000000000000602082015250565b5f61106e602883610adb565b915061107982611014565b604082019050919050565b5f6020820190508181035f83015261109b81611062565b9050919050565b7f54686520766f74657220616c726561647920766f7465642e00000000000000005f82015250565b5f6110d6601883610adb565b91506110e1826110a2565b602082019050919050565b5f6020820190508181035f830152611103816110ca565b905091905056fea2646970667358221220ff94599df21f56296960b3fc2bc42ec855e4923a18c94a8e36ead6d58503b54e64736f6c63430008150033",
  "immutableReferences": {},
  "source": "// SPDX-License-Identifier: MIT\npragma solidity ^0.8.0;\n\n/**\n * @title \n * @author \n * @notice \n */\ncontract Ballot {\n\n  //\n  struct Voter {\n    uint256 weight; // \n    bool voted;     // \n    address delegate; // \n    uint256 vote;   // ID\n  }\n\n  //\n  struct Proposal {\n    string name;   // \n    uint256 voteCount; // \n  }\n\n  address public chairperson; // \n\n  mapping(address => Voter) public voters; // \n  Proposal[] public proposals; // \n\n  constructor(string[] memory _proposals) {\n    chairperson = msg.sender; // \n    voters[chairperson].weight = 1; // 1\n\n    // \n    for (uint256 i = 0; i < _proposals.length; i++) {\n      proposals.push(Proposal({name: _proposals[i], voteCount: 0}));\n    }\n    // proposals.push(Proposal({name: \"Proposal 2\", voteCount: 0}));\n    // proposals.push(Proposal({name: \"Proposal 3\", voteCount: 0}));\n  }\n\n   //\n  function giveRightToVote(address voter) public {\n    require(\n      msg.sender == chairperson,\n      \"Only chairperson can give right to vote.\"\n    );\n    require(\n      !voters[voter].voted,\n      \"The voter already voted.\"\n    );\n    require(voters[voter].weight == 0);\n    voters[voter].weight = 1;\n  }\n\n  // to \n  function delegate(address to) public {\n    Voter storage sender = voters[msg.sender]; // \n    require(!sender.voted, \"You already voted.\");   //        \n    require(to != msg.sender, \"Self-delegation is disallowed.\"); // \n    // \n    while (voters[to].delegate != address(0)) {\n      to = voters[to].delegate;\n      // \n      require(to != msg.sender, \"Found loop in delegation.\");   \n    }\n    sender.voted = true;\n    sender.delegate = to;\n    Voter storage delegate_ = voters[to];\n    if (delegate_.voted) {\n      // \n      proposals[delegate_.vote].voteCount += sender.weight;\n    } else {\n      // \n      delegate_.weight += sender.weight;\n    }\n  }\n\n  //\n  function vote (uint256 proposal) public {\n    Voter storage sender = voters[msg.sender];\n    require(sender.weight != 0, \"Has no right to vote.\");\n    require(!sender.voted, \"Already voted.\");\n    sender.voted = true;\n    sender.vote = proposal;\n    proposals[proposal].voteCount += sender.weight;   \n  }\n\n  //ID\n  function winningProposal() public view returns (uint256 winningProposal_) {\n    uint256 winningVoteCount = 0;\n    for (uint256 p = 0; p < proposals.length; p++) {\n      if (proposals[p].voteCount > winningVoteCount) {\n        winningVoteCount = proposals[p].voteCount;\n        winningProposal_ = p;\n      }\n    }\n    return winningProposal_;\n  }\n\n   //\n  function winnerName() public view returns (string memory winnerName_) {\n    winnerName_ = proposals[winningProposal()].name;    \n    return winnerName_;\n  }\n\n}\n",
  "sourcePath": "/Users/pengjun/Desktop/project/ethereum/web_study/web3_study_demo/demo3/contracts/Ballot.sol",
  "compiler": {
    "name": "solc",
    "version": "0.8.21+commit.d9974bed.Emscripten.clang"
  },
  "schemaVersion": "3.4.16",
  "updatedAt": "2025-12-24T10:27:05.317Z",
  "devdoc": {
    "kind": "dev",
    "methods": {},
    "title": "",
    "version": 1
  },
  "userdoc": {
    "kind": "user",
    "methods": {},
    "version": 1
  }
}