{
  "contractName": "Counter",
  "abi": [
    {
      "inputs": [],
      "name": "count",
      "outputs": [
        {
          "internalType": "uint256",
          "name": "",
          "type": "uint256"
        }
      ],
      "stateMutability": "view",
      "type": "function"
    },
    {
      "inputs": [],
      "name": "increment",
      "outputs": [],
      "stateMutability": "nonpayable",
      "type": "function"
    },
    {
      "inputs": [],
      "name": "get",
      "outputs": [
        {
          "internalType": "uint256",
          "name": "",
          "type": "uint256"
        }
      ],
      "stateMutability": "view",
      "type": "function"
    }
  ],
  "bytecode": "0x60806040525f8055348015610012575f80fd5b50610189806100205f395ff3fe608060405234801561000f575f80fd5b506004361061003f575f3560e01c806306661abd146100435780636d4ce63c14610061578063d09de08a1461007f575b5f80fd5b61004b610089565b60405161005891906100c6565b60405180910390f35b61006961008e565b60405161007691906100c6565b60405180910390f35b610087610096565b005b5f5481565b5f8054905090565b5f808154809291906100a79061010c565b9190505550565b5f819050919050565b6100c0816100ae565b82525050565b5f6020820190506100d95f8301846100b7565b92915050565b7f4e487b71000000000000000000000000000000000000000000000000000000005f52601160045260245ffd5b5f610116826100ae565b91507fffffffffffffffffffffffffffffffffffffffffffffffffffffffffffffffff8203610148576101476100df565b5b60018201905091905056fea2646970667358221220b8e360396c6521af6377a7258b02fb7acf0c0a77508bd8b632f63dce73a8a06964736f6c63430008150033",
  "immutableReferences": {},
  "source": "// SPDX-License-Identifier: MIT\npragma solidity ^0.8.0;\n\ncontract Counter {\n    uint256 public count = 0;\n\n    function increment() public {\n        count++;\n    }\n\n    function get() public view returns (uint256) {\n        return count;\n    }\n}\n",
  "sourcePath": "/Users/pengjun/Desktop/project/ethereum/web_study/web3_study_demo/demo1/contracts/Counter.sol",
  "compiler": {
    "name": "solc",
    "version": "0.8.21+commit.d9974bed.Emscripten.clang"
  },
  "schemaVersion": "3.4.16",
  "updatedAt": "2025-12-24T07:34:31.037Z",
  "devdoc": {
    "kind": "dev",
    "methods": {},
    "version": 1
  },
  "userdoc": {
    "kind": "user",
    "methods": {},
    "version": 1
  }
}